:020000040000FA
:040000000EEF00F00F
:020004000000FA
:04000800C3EF03F04F
:04001800C4EF03F03E
:04001C002CEC03F0D5
:1000200088EC00F0C282C2B2FED7C4CF87F0C3CF43
:1000300088F08C51876304D08D51886301D0F2D74A
:1000400087C08CF088C08DF084EC00F0AAEC00F042
:10005000FEEC00F0936B926B0EEC03F0410E956F8B
:10006000DAEC02F0440E956FDAEC02F0430E956F75
:10007000DAEC02F03D0E956FDAEC02F087C098F0F2
:10008000CEEC02F0DAEC02F088C098F0CEEC02F090
:10009000DAEC02F0936B010E926F0EEC03F0560E49
:1000A000956FDAEC02F06F0E956FDAEC02F06C0EE1
:1000B000956FDAEC02F0740E956FDAEC02F03D0EFB
:1000C000956FDAEC02F084C098F0CEEC02F0DAEC36
:1000D00002F02E0E956FDAEC02F085C080F0F1ECA4
:1000E00000F082C098F0CEEC02F0DAEC02F083C0AF
:1000F00098F0CEEC02F0DAEC02F094D70F0EC16E5D
:100100008A6A93928A72FED7846B856B866B120023
:100110008E0EC16EC10EC26E010EC06EC08EB2ECEC
:1001200003F012008B5186279DEC00F08A51852741
:100130009DEC00F0895184271200630E866503D080
:10014000640E865F852B630E856503D0640E855F24
:10015000842B120087A305D0090E80EC02F092ECEC
:1001600000F087A105D0080E80EC02F092EC00F0C0
:1001700088AF05D0070E80EC02F092EC00F088AD5D
:1001800005D0060E80EC02F092EC00F088AB05D0B2
:10019000050E80EC02F092EC00F088A905D0040E68
:1001A00080EC02F092EC00F088A705D0030E80EC02
:1001B00002F092EC00F088A505D0020E80EC02F06F
:1001C00092EC00F088A305D0010E80EC02F092ECD6
:1001D00000F088A105D0000E80EC02F092EC00F057
:1001E00012000A0E816F826B8051816503D080C03E
:1001F00083F012008151805F822BF6D786C080F099
:10020000F1EC00F0040E826503D0852B9DEC00F02C
:020210001200DA
:10050000E824F9260FD013D017D01CD021D026D044
:100510002BD030D035D03BD033D039D031D037D0BC
:100520002FD035D0896B8A6B310E8B6F1200896B9F
:100530008A6B620E8B6F1200896B010E8A6F600EE0
:100540008B6F1200896B030E8A6F5B0E8B6F12002C
:10055000896B070E8A6F520E8B6F1200896B0F0E1C
:100560008A6F400E8B6F1200896B1F0E8A6F1C0EF4
:100570008B6F1200896B3E0E8A6F380E8B6F1200E4
:10058000010E896F190E8A6F0C0E8B6F1200020E0E
:10059000896F320E8A6F180E8B6F12000F0E98172C
:1005A0000A0E986105D0300E982798C095F0120079
:1005B000370EFAD7000E926309D0100E936306D05F
:1005C000010E926F000E936F0EEC03F0010E92631A
:1005D00008D0100E936305D0000E926F936F0EEC4F
:1005E00003F0F6EC02F0010E922712008C8895C001
:1005F00091F0913B7EEC03F095C091F07EEC03F01E
:100600001200010E906F5EEC03F09DEC03F0000E03
:10061000926F000E936F0EEC03F01200140E9361B4
:1006200011D0040E92610ED0020E92610CD0400ED9
:100630009203F3CF94F093519427948F94C090F049
:100640005EEC03F01200400E9203F3CF94F093514E
:10065000942794899485F1D753EC03F0000E936F9F
:10066000926F9DEC03F08C98030E916F7EEC03F07B
:10067000A4EC03F07EEC03F0B2EC03F07EEC03F0AC
:10068000020E916F7EEC03F0280E906F5EEC03F08B
:100690000C0E906F5EEC03F0060E906F5EEC03F0B4
:1006A00001EC03F012008C6A9590959295949596C2
:1006B000959C959A9598959E8C8E1200A4EC03F0CB
:1006C0008C9890C091F0913B7EEC03F090C091F03B
:1006D0007EEC03F0120095869584958295808C9827
:1006E0008C8AC0EC03F08C8CC0EC03F083B6FED790
:1006F0008C9C959695949592959012008C9A8C8CE2
:1007000088EC03F0B9EC03F08C9CB9EC03F0120018
:1007100091B10BD08C9091B30AD08C9291B509D045
:100720008C9491B708D08C9612008C80F4D78C8270
:10073000F5D78C84F6D78C86F7D70F0E8F6FABEC7E
:1007400003F08F2FFCD71200050E8F6FABEC03F078
:100750008F2FFCD71200F80E8E6FC0EC03F08E2F97
:10076000FCD71200620E8E6FC0EC03F08E2FFCD708
:100770001200090E8E6FC0EC03F08E2FFCD7120012
:0A078000000000001200100010003D
:00000001FF
